{
  "_format": "hh-sol-artifact-1",
  "contractName": "DyDxFlashLoan",
  "sourceName": "contracts/Arbitrage.sol",
  "abi": [
    {
      "inputs": [],
      "stateMutability": "nonpayable",
      "type": "constructor"
    },
    {
      "inputs": [],
      "name": "WETH",
      "outputs": [
        {
          "internalType": "address",
          "name": "",
          "type": "address"
        }
      ],
      "stateMutability": "view",
      "type": "function"
    },
    {
      "inputs": [
        {
          "internalType": "address",
          "name": "",
          "type": "address"
        }
      ],
      "name": "currencies",
      "outputs": [
        {
          "internalType": "uint256",
          "name": "",
          "type": "uint256"
        }
      ],
      "stateMutability": "view",
      "type": "function"
    },
    {
      "inputs": [
        {
          "internalType": "address",
          "name": "token",
          "type": "address"
        }
      ],
      "name": "tokenToMarketId",
      "outputs": [
        {
          "internalType": "uint256",
          "name": "",
          "type": "uint256"
        }
      ],
      "stateMutability": "view",
      "type": "function"
    }
  ],
  "bytecode": "0x6080604052731e0447b19bb6ecfdae1e4ae1694b0c3659614e4e6000806101000a81548173ffffffffffffffffffffffffffffffffffffffff021916908373ffffffffffffffffffffffffffffffffffffffff16021790555073c02aaa39b223fe8d0a0e5c4f27ead9083c756cc2600160006101000a81548173ffffffffffffffffffffffffffffffffffffffff021916908373ffffffffffffffffffffffffffffffffffffffff1602179055503480156100b957600080fd5b50600160026000600160009054906101000a900473ffffffffffffffffffffffffffffffffffffffff1673ffffffffffffffffffffffffffffffffffffffff1673ffffffffffffffffffffffffffffffffffffffff168152602001908152602001600020819055506103a4806101306000396000f3fe608060405234801561001057600080fd5b50600436106100415760003560e01c80636036cba314610046578063ad5c464814610076578063b826878814610094575b600080fd5b610060600480360381019061005b9190610203565b6100c4565b60405161006d9190610249565b60405180910390f35b61007e6100dc565b60405161008b9190610273565b60405180910390f35b6100ae60048036038101906100a99190610203565b610102565b6040516100bb9190610249565b60405180910390f35b60026020528060005260406000206000915090505481565b600160009054906101000a900473ffffffffffffffffffffffffffffffffffffffff1681565b600080600260008473ffffffffffffffffffffffffffffffffffffffff1673ffffffffffffffffffffffffffffffffffffffff168152602001908152602001600020549050600081141561018b576040517f08c379a0000000000000000000000000000000000000000000000000000000008152600401610182906102eb565b60405180910390fd5b600181610198919061033a565b915050919050565b600080fd5b600073ffffffffffffffffffffffffffffffffffffffff82169050919050565b60006101d0826101a5565b9050919050565b6101e0816101c5565b81146101eb57600080fd5b50565b6000813590506101fd816101d7565b92915050565b600060208284031215610219576102186101a0565b5b6000610227848285016101ee565b91505092915050565b6000819050919050565b61024381610230565b82525050565b600060208201905061025e600083018461023a565b92915050565b61026d816101c5565b82525050565b60006020820190506102886000830184610264565b92915050565b600082825260208201905092915050565b7f466c6173684c6f616e3a20556e737570706f7274656420746f6b656e00000000600082015250565b60006102d5601c8361028e565b91506102e08261029f565b602082019050919050565b60006020820190508181036000830152610304816102c8565b9050919050565b7f4e487b7100000000000000000000000000000000000000000000000000000000600052601160045260246000fd5b600061034582610230565b915061035083610230565b9250828210156103635761036261030b565b5b82820390509291505056fea2646970667358221220e3c065b1ec26ec62ae6f1f04fbe581a8deda069be31ae6b91744baafd22052f964736f6c63430008090033",
  "linkReferences": {},
  "deployedLinkReferences": {}
}